{
  "contractName": "Animal",
  "abi": [
    {
      "constant": true,
      "inputs": [],
      "name": "idIncrement",
      "outputs": [
        {
          "name": "",
          "type": "uint256"
        }
      ],
      "payable": false,
      "stateMutability": "view",
      "type": "function"
    },
    {
      "constant": false,
      "inputs": [
        {
          "name": "_name",
          "type": "string"
        },
        {
          "name": "_type",
          "type": "string"
        }
      ],
      "name": "setAnimal",
      "outputs": [
        {
          "name": "",
          "type": "string"
        }
      ],
      "payable": false,
      "stateMutability": "nonpayable",
      "type": "function"
    },
    {
      "constant": true,
      "inputs": [],
      "name": "getAllAnimal",
      "outputs": [
        {
          "components": [
            {
              "name": "id",
              "type": "uint256"
            },
            {
              "name": "name",
              "type": "string"
            },
            {
              "name": "animal_type",
              "type": "string"
            }
          ],
          "name": "",
          "type": "tuple[]"
        }
      ],
      "payable": false,
      "stateMutability": "view",
      "type": "function"
    },
    {
      "constant": true,
      "inputs": [
        {
          "name": "_id",
          "type": "uint256"
        }
      ],
      "name": "getAnimalById",
      "outputs": [
        {
          "components": [
            {
              "name": "id",
              "type": "uint256"
            },
            {
              "name": "name",
              "type": "string"
            },
            {
              "name": "animal_type",
              "type": "string"
            }
          ],
          "name": "",
          "type": "tuple"
        }
      ],
      "payable": false,
      "stateMutability": "view",
      "type": "function"
    }
  ],
  "bytecode": "0x6080604052600160005534801561001557600080fd5b50610a5d806100256000396000f3fe60806040526004361061005c576000357c010000000000000000000000000000000000000000000000000000000090048063989ae1cf14610061578063b974ddcb1461008c578063cfedfeb3146100c9578063f5561769146100f4575b600080fd5b34801561006d57600080fd5b50610076610131565b60405161008391906108a7565b60405180910390f35b34801561009857600080fd5b506100b360048036036100ae91908101906106e7565b6102df565b6040516100c091906108eb565b60405180910390f35b3480156100d557600080fd5b506100de610465565b6040516100eb919061090d565b60405180910390f35b34801561010057600080fd5b5061011b6004803603610116919081019061067b565b61046b565b60405161012891906108c9565b60405180910390f35b60606001805480602002602001604051908101604052809291908181526020016000905b828210156102d657838290600052602060002090600302016060604051908101604052908160008201548152602001600182018054600181600116156101000203166002900480601f01602080910402602001604051908101604052809291908181526020018280546001816001161561010002031660029004801561021c5780601f106101f15761010080835404028352916020019161021c565b820191906000526020600020905b8154815290600101906020018083116101ff57829003601f168201915b50505050508152602001600282018054600181600116156101000203166002900480601f0160208091040260200160405190810160405280929190818152602001828054600181600116156101000203166002900480156102be5780601f10610293576101008083540402835291602001916102be565b820191906000526020600020905b8154815290600101906020018083116102a157829003601f168201915b50505050508152505081526020019060010190610155565b50505050905090565b6102e761054a565b6001828154811015156102f657fe5b90600052602060002090600302016060604051908101604052908160008201548152602001600182018054600181600116156101000203166002900480601f0160208091040260200160405190810160405280929190818152602001828054600181600116156101000203166002900480156103b35780601f10610388576101008083540402835291602001916103b3565b820191906000526020600020905b81548152906001019060200180831161039657829003601f168201915b50505050508152602001600282018054600181600116156101000203166002900480601f0160208091040260200160405190810160405280929190818152602001828054600181600116156101000203166002900480156104555780601f1061042a57610100808354040283529160200191610455565b820191906000526020600020905b81548152906001019060200180831161043857829003601f168201915b5050505050815250509050919050565b60005481565b606061047561054a565b6000548160000181815250508381602001819052508281604001819052508060016000548154811015156104a557fe5b90600052602060002090600302016000820151816000015560208201518160010190805190602001906104d992919061056c565b5060408201518160020190805190602001906104f692919061056c565b5090505060008081548092919060010191905055506040805190810160405280601281526020017f426572686173696c2054657273696d70616e000000000000000000000000000081525091505092915050565b6060604051908101604052806000815260200160608152602001606081525090565b828054600181600116156101000203166002900490600052602060002090601f016020900481019282601f106105ad57805160ff19168380011785556105db565b828001600101855582156105db579182015b828111156105da5782518255916020019190600101906105bf565b5b5090506105e891906105ec565b5090565b61060e91905b8082111561060a5760008160009055506001016105f2565b5090565b90565b600082601f830112151561062457600080fd5b813561063761063282610955565b610928565b9150808252602083016020830185838301111561065357600080fd5b61065e8382846109d0565b50505092915050565b600061067382356109c6565b905092915050565b6000806040838503121561068e57600080fd5b600083013567ffffffffffffffff8111156106a857600080fd5b6106b485828601610611565b925050602083013567ffffffffffffffff8111156106d157600080fd5b6106dd85828601610611565b9150509250929050565b6000602082840312156106f957600080fd5b600061070784828501610667565b91505092915050565b600061071b8261098e565b8084526020840193508360208202850161073485610981565b60005b8481101561076d57838303885261074f838351610841565b925061075a826109af565b9150602088019750600181019050610737565b508196508694505050505092915050565b6000610789826109a4565b80845261079d8160208601602086016109df565b6107a681610a12565b602085010191505092915050565b60006107bf82610999565b8084526107d38160208601602086016109df565b6107dc81610a12565b602085010191505092915050565b60006060830160008301516108026000860182610898565b506020830151848203602086015261081a82826107b4565b9150506040830151848203604086015261083482826107b4565b9150508091505092915050565b60006060830160008301516108596000860182610898565b506020830151848203602086015261087182826107b4565b9150506040830151848203604086015261088b82826107b4565b9150508091505092915050565b6108a1816109bc565b82525050565b600060208201905081810360008301526108c18184610710565b905092915050565b600060208201905081810360008301526108e3818461077e565b905092915050565b6000602082019050818103600083015261090581846107ea565b905092915050565b60006020820190506109226000830184610898565b92915050565b6000604051905081810181811067ffffffffffffffff8211171561094b57600080fd5b8060405250919050565b600067ffffffffffffffff82111561096c57600080fd5b601f19601f8301169050602081019050919050565b6000602082019050919050565b600081519050919050565b600081519050919050565b600081519050919050565b6000602082019050919050565b6000819050919050565b6000819050919050565b82818337600083830152505050565b60005b838110156109fd5780820151818401526020810190506109e2565b83811115610a0c576000848401525b50505050565b6000601f19601f830116905091905056fea265627a7a72305820b01c0ddbdf0208dfc794379cd30c768e04714b9675907c1b022e39d35bcf52856c6578706572696d656e74616cf50037",
  "source": "// SPDX-License-Identifier: MIT\npragma solidity >=0.4.22 <0.9.0;\npragma experimental ABIEncoderV2;\n\ncontract Animal {\n  struct DataAnimal{\n    uint id;\n    string name;\n    string animal_type;\n  }\n\n  uint public idIncrement = 1;\n  DataAnimal[] Data;\n\n  function setAnimal(string memory _name, string memory _type) public returns (string memory) {\n    DataAnimal memory tmp;\n\n    tmp.id = idIncrement;\n    tmp.name = _name;\n    tmp.animal_type = _type;\n\n    Data[idIncrement] = tmp;\n\n    idIncrement++;\n\n    return \"Berhasil Tersimpan\";\n  }\n\n  function getAllAnimal() public view returns (DataAnimal[] memory) {\n    return Data;\n  }\n\n  function getAnimalById(uint _id) public view returns (DataAnimal memory) {\n    return Data[_id];\n  }\n}\n",
  "sourcePath": "C:\\Users\\billy\\Documents\\laragon\\www\\responsi\\petanimal\\blockchain\\contracts\\Animal.sol",
  "compiler": {
    "name": "solc",
    "version": "0.5.1+commit.c8a2cb62.Emscripten.clang"
  },
  "schemaVersion": "3.4.16",
  "updatedAt": "2023-11-15T09:15:09.556Z",
  "networkType": "ethereum",
  "devdoc": {
    "methods": {}
  },
  "userdoc": {
    "methods": {}
  }
}