{
  "contractName": "Adoption",
  "abi": [
    {
      "constant": false,
      "inputs": [
        {
          "name": "_id",
          "type": "uint256"
        }
      ],
      "name": "setAdoption",
      "outputs": [
        {
          "name": "",
          "type": "string"
        }
      ],
      "payable": false,
      "stateMutability": "nonpayable",
      "type": "function"
    },
    {
      "constant": true,
      "inputs": [
        {
          "name": "_id",
          "type": "uint256"
        }
      ],
      "name": "getAdopter",
      "outputs": [
        {
          "name": "",
          "type": "address"
        }
      ],
      "payable": false,
      "stateMutability": "view",
      "type": "function"
    }
  ],
  "bytecode": "0x608060405234801561001057600080fd5b50610337806100206000396000f3fe608060405260043610610046576000357c0100000000000000000000000000000000000000000000000000000000900480639e4008251461004b578063a733829714610088575b600080fd5b34801561005757600080fd5b50610072600480360361006d91908101906101c7565b6100c5565b60405161007f9190610250565b60405180910390f35b34801561009457600080fd5b506100af60048036036100aa91908101906101c7565b61017a565b6040516100bc9190610235565b60405180910390f35b6060336000836010811015156100d757fe5b0160006101000a81548173ffffffffffffffffffffffffffffffffffffffff021916908373ffffffffffffffffffffffffffffffffffffffff160217905550606060405190810160405280602281526020017f426572686173696c2054657273696d70616e2041646f7073692042696e61746181526020017f6e670000000000000000000000000000000000000000000000000000000000008152509050919050565b6000808260108110151561018a57fe5b0160009054906101000a900473ffffffffffffffffffffffffffffffffffffffff169050919050565b60006101bf82356102af565b905092915050565b6000602082840312156101d957600080fd5b60006101e7848285016101b3565b91505092915050565b6101f98161027d565b82525050565b600061020a82610272565b80845261021e8160208601602086016102b9565b610227816102ec565b602085010191505092915050565b600060208201905061024a60008301846101f0565b92915050565b6000602082019050818103600083015261026a81846101ff565b905092915050565b600081519050919050565b60006102888261028f565b9050919050565b600073ffffffffffffffffffffffffffffffffffffffff82169050919050565b6000819050919050565b60005b838110156102d75780820151818401526020810190506102bc565b838111156102e6576000848401525b50505050565b6000601f19601f830116905091905056fea265627a7a72305820536d25892bca8f40d2a6ba40e7b45949bff53343162e64c377ded97809bf9aad6c6578706572696d656e74616cf50037",
  "source": "// SPDX-License-Identifier: MIT\npragma solidity >=0.4.22 <0.9.0;\npragma experimental ABIEncoderV2;\n\n\ncontract Adoption {\n  address[16] Adopt;\n\n  function setAdoption(uint _id) public returns (string memory) {\n    Adopt[_id] = msg.sender;\n\n    return \"Berhasil Tersimpan Adopsi Binatang\";\n  }\n\n  function getAdopter(uint _id) public view returns (address) {\n    return Adopt[_id];\n  }\n}\n",
  "sourcePath": "C:\\Users\\billy\\Documents\\laragon\\www\\responsi\\petanimal\\blockchain\\contracts\\Adoption.sol",
  "compiler": {
    "name": "solc",
    "version": "0.5.1+commit.c8a2cb62.Emscripten.clang"
  },
  "schemaVersion": "3.4.16",
  "updatedAt": "2023-11-15T09:15:09.443Z",
  "networkType": "ethereum",
  "devdoc": {
    "methods": {}
  },
  "userdoc": {
    "methods": {}
  }
}