{
  "contractName": "Animal",
  "abi": [
    {
      "constant": true,
      "inputs": [
        {
          "name": "",
          "type": "uint256"
        }
      ],
      "name": "animal",
      "outputs": [
        {
          "name": "id",
          "type": "uint256"
        },
        {
          "name": "name",
          "type": "string"
        },
        {
          "name": "picture",
          "type": "string"
        }
      ],
      "payable": false,
      "stateMutability": "view",
      "type": "function"
    },
    {
      "constant": false,
      "inputs": [
        {
          "name": "_name",
          "type": "string"
        },
        {
          "name": "_picture",
          "type": "string"
        }
      ],
      "name": "addAnimal",
      "outputs": [
        {
          "name": "",
          "type": "string"
        }
      ],
      "payable": false,
      "stateMutability": "nonpayable",
      "type": "function"
    },
    {
      "constant": true,
      "inputs": [],
      "name": "getAnimal",
      "outputs": [
        {
          "components": [
            {
              "name": "id",
              "type": "uint256"
            },
            {
              "name": "name",
              "type": "string"
            },
            {
              "name": "picture",
              "type": "string"
            }
          ],
          "name": "",
          "type": "tuple[]"
        }
      ],
      "payable": false,
      "stateMutability": "view",
      "type": "function"
    },
    {
      "constant": false,
      "inputs": [
        {
          "name": "_id",
          "type": "uint256"
        }
      ],
      "name": "deleteAnimalById",
      "outputs": [
        {
          "name": "",
          "type": "uint256"
        }
      ],
      "payable": false,
      "stateMutability": "nonpayable",
      "type": "function"
    }
  ],
  "bytecode": "0x6080604052600060015534801561001557600080fd5b50610a8d806100256000396000f3fe60806040526004361061005c576000357c0100000000000000000000000000000000000000000000000000000000900480634fcc315514610061578063a06c34fb1461009e578063be71e016146100db578063d2dca76914610106575b600080fd5b34801561006d57600080fd5b506100886004803603610083919081019061074b565b610145565b60405161009591906108f8565b60405180910390f35b3480156100aa57600080fd5b506100c560048036036100c091908101906106df565b610196565b6040516100d291906108d6565b60405180910390f35b3480156100e757600080fd5b506100f061024f565b6040516100fd91906108b4565b60405180910390f35b34801561011257600080fd5b5061012d6004803603610128919081019061074b565b6103fd565b60405161013c93929190610913565b60405180910390f35b6000808281548110151561015557fe5b906000526020600020906003020160008082016000905560018201600061017c9190610566565b60028201600061018c9190610566565b5050819050919050565b60606101a06105ae565b600154816000018181525050838160200181905250828160400181905250600081908060018154018082558091505090600182039060005260206000209060030201600090919290919091506000820151816000015560208201518160010190805190602001906102129291906105d0565b50604082015181600201908051906020019061022f9291906105d0565b505050506001600081548092919060010191905055508391505092915050565b60606000805480602002602001604051908101604052809291908181526020016000905b828210156103f457838290600052602060002090600302016060604051908101604052908160008201548152602001600182018054600181600116156101000203166002900480601f01602080910402602001604051908101604052809291908181526020018280546001816001161561010002031660029004801561033a5780601f1061030f5761010080835404028352916020019161033a565b820191906000526020600020905b81548152906001019060200180831161031d57829003601f168201915b50505050508152602001600282018054600181600116156101000203166002900480601f0160208091040260200160405190810160405280929190818152602001828054600181600116156101000203166002900480156103dc5780601f106103b1576101008083540402835291602001916103dc565b820191906000526020600020905b8154815290600101906020018083116103bf57829003601f168201915b50505050508152505081526020019060010190610273565b50505050905090565b60008181548110151561040c57fe5b9060005260206000209060030201600091509050806000015490806001018054600181600116156101000203166002900480601f0160208091040260200160405190810160405280929190818152602001828054600181600116156101000203166002900480156104be5780601f10610493576101008083540402835291602001916104be565b820191906000526020600020905b8154815290600101906020018083116104a157829003601f168201915b505050505090806002018054600181600116156101000203166002900480601f01602080910402602001604051908101604052809291908181526020018280546001816001161561010002031660029004801561055c5780601f106105315761010080835404028352916020019161055c565b820191906000526020600020905b81548152906001019060200180831161053f57829003601f168201915b5050505050905083565b50805460018160011615610100020316600290046000825580601f1061058c57506105ab565b601f0160209004906000526020600020908101906105aa9190610650565b5b50565b6060604051908101604052806000815260200160608152602001606081525090565b828054600181600116156101000203166002900490600052602060002090601f016020900481019282601f1061061157805160ff191683800117855561063f565b8280016001018555821561063f579182015b8281111561063e578251825591602001919060010190610623565b5b50905061064c9190610650565b5090565b61067291905b8082111561066e576000816000905550600101610656565b5090565b90565b600082601f830112151561068857600080fd5b813561069b61069682610985565b610958565b915080825260208301602083018583830111156106b757600080fd5b6106c2838284610a00565b50505092915050565b60006106d782356109f6565b905092915050565b600080604083850312156106f257600080fd5b600083013567ffffffffffffffff81111561070c57600080fd5b61071885828601610675565b925050602083013567ffffffffffffffff81111561073557600080fd5b61074185828601610675565b9150509250929050565b60006020828403121561075d57600080fd5b600061076b848285016106cb565b91505092915050565b600061077f826109be565b80845260208401935083602082028501610798856109b1565b60005b848110156107d15783830388526107b383835161084e565b92506107be826109df565b915060208801975060018101905061079b565b508196508694505050505092915050565b60006107ed826109d4565b808452610801816020860160208601610a0f565b61080a81610a42565b602085010191505092915050565b6000610823826109c9565b808452610837816020860160208601610a0f565b61084081610a42565b602085010191505092915050565b600060608301600083015161086660008601826108a5565b506020830151848203602086015261087e8282610818565b915050604083015184820360408601526108988282610818565b9150508091505092915050565b6108ae816109ec565b82525050565b600060208201905081810360008301526108ce8184610774565b905092915050565b600060208201905081810360008301526108f081846107e2565b905092915050565b600060208201905061090d60008301846108a5565b92915050565b600060608201905061092860008301866108a5565b818103602083015261093a8185610818565b9050818103604083015261094e8184610818565b9050949350505050565b6000604051905081810181811067ffffffffffffffff8211171561097b57600080fd5b8060405250919050565b600067ffffffffffffffff82111561099c57600080fd5b601f19601f8301169050602081019050919050565b6000602082019050919050565b600081519050919050565b600081519050919050565b600081519050919050565b6000602082019050919050565b6000819050919050565b6000819050919050565b82818337600083830152505050565b60005b83811015610a2d578082015181840152602081019050610a12565b83811115610a3c576000848401525b50505050565b6000601f19601f830116905091905056fea265627a7a72305820cfb43f1e0aed64f535c412c120c9fa75777df2aa11ace33e6f349a610f79fad76c6578706572696d656e74616cf50037",
  "source": "// SPDX-License-Identifier: MIT\npragma solidity >=0.4.22 <0.9.0;\npragma experimental ABIEncoderV2;\n\ncontract Animal {\n  struct animalData{\n    uint id;\n    string name;\n    string picture;\n  }\n\n  animalData[] public animal;\n  uint counter_id = 0;\n\n  function addAnimal(string memory _name, string memory _picture) public returns (string memory) {\n    animalData memory inData;\n\n    inData.id = counter_id;\n    inData.name = _name;\n    inData.picture = _picture;\n\n    animal.push(inData);\n\n    counter_id++;\n\n    return _name;\n  }\n\n  function getAnimal() public view returns (animalData[] memory) {\n    return animal;\n  }\n\n  function deleteAnimalById(uint _id) public returns (uint){\n    delete animal[_id];\n\n    return _id;\n  }\n}",
  "sourcePath": "C:\\Users\\billy\\Documents\\laragon\\www\\responsi\\petanimal\\03\\blockchain\\contracts\\Animal.sol",
  "compiler": {
    "name": "solc",
    "version": "0.5.1+commit.c8a2cb62.Emscripten.clang"
  },
  "schemaVersion": "3.4.16",
  "updatedAt": "2023-11-29T09:21:06.971Z",
  "networkType": "ethereum",
  "devdoc": {
    "methods": {}
  },
  "userdoc": {
    "methods": {}
  }
}